{
	"data": {
		"bytecode": {
			"linkReferences": {},
			"object": "608060405260026000806101000a81548160ff0219169083600281111561002957610028610040565b5b021790555034801561003a57600080fd5b5061006f565b7f4e487b7100000000000000000000000000000000000000000000000000000000600052602160045260246000fd5b6103ee8061007e6000396000f3fe608060405234801561001057600080fd5b506004361061004c5760003560e01c80630f15f4c01461005157806351b42b001461005b578063e615047314610065578063f629129f14610083575b600080fd5b6100596100a1565b005b6100636100cd565b005b61006d6100f9565b60405161007a91906102ce565b60405180910390f35b61008b61025a565b60405161009891906102b3565b60405180910390f35b60008060006101000a81548160ff021916908360028111156100c6576100c5610364565b5b0217905550565b60016000806101000a81548160ff021916908360028111156100f2576100f1610364565b5b0217905550565b60606000600281111561010f5761010e610364565b5b60008054906101000a900460ff16600281111561012f5761012e610364565b5b1415610172576040518060400160405280600681526020017f41637469766500000000000000000000000000000000000000000000000000008152509050610257565b6001600281111561018657610185610364565b5b60008054906101000a900460ff1660028111156101a6576101a5610364565b5b14156101e9576040518060400160405280600881526020017f496e6163746976650000000000000000000000000000000000000000000000008152509050610257565b6002808111156101fc576101fb610364565b5b60008054906101000a900460ff16600281111561021c5761021b610364565b5b50506040518060400160405280600a81526020017f57616974696e672e2e2e0000000000000000000000000000000000000000000081525090505b90565b60008054906101000a900460ff1681565b6102748161031f565b82525050565b6000610285826102f0565b61028f81856102fb565b935061029f818560208601610331565b6102a881610393565b840191505092915050565b60006020820190506102c8600083018461026b565b92915050565b600060208201905081810360008301526102e8818461027a565b905092915050565b600081519050919050565b600082825260208201905092915050565b600081905061031a826103a4565b919050565b600061032a8261030c565b9050919050565b60005b8381101561034f578082015181840152602081019050610334565b8381111561035e576000848401525b50505050565b7f4e487b7100000000000000000000000000000000000000000000000000000000600052602160045260246000fd5b6000601f19601f8301169050919050565b600381106103b5576103b4610364565b5b5056fea2646970667358221220ad19d5b978c0499ac40edf63009dbe5cb519d8fbfd95217d8be48262d6b8f6da64736f6c63430008070033",
			"opcodes": "PUSH1 0x80 PUSH1 0x40 MSTORE PUSH1 0x2 PUSH1 0x0 DUP1 PUSH2 0x100 EXP DUP2 SLOAD DUP2 PUSH1 0xFF MUL NOT AND SWAP1 DUP4 PUSH1 0x2 DUP2 GT ISZERO PUSH2 0x29 JUMPI PUSH2 0x28 PUSH2 0x40 JUMP JUMPDEST JUMPDEST MUL OR SWAP1 SSTORE POP CALLVALUE DUP1 ISZERO PUSH2 0x3A JUMPI PUSH1 0x0 DUP1 REVERT JUMPDEST POP PUSH2 0x6F JUMP JUMPDEST PUSH32 0x4E487B7100000000000000000000000000000000000000000000000000000000 PUSH1 0x0 MSTORE PUSH1 0x21 PUSH1 0x4 MSTORE PUSH1 0x24 PUSH1 0x0 REVERT JUMPDEST PUSH2 0x3EE DUP1 PUSH2 0x7E PUSH1 0x0 CODECOPY PUSH1 0x0 RETURN INVALID PUSH1 0x80 PUSH1 0x40 MSTORE CALLVALUE DUP1 ISZERO PUSH2 0x10 JUMPI PUSH1 0x0 DUP1 REVERT JUMPDEST POP PUSH1 0x4 CALLDATASIZE LT PUSH2 0x4C JUMPI PUSH1 0x0 CALLDATALOAD PUSH1 0xE0 SHR DUP1 PUSH4 0xF15F4C0 EQ PUSH2 0x51 JUMPI DUP1 PUSH4 0x51B42B00 EQ PUSH2 0x5B JUMPI DUP1 PUSH4 0xE6150473 EQ PUSH2 0x65 JUMPI DUP1 PUSH4 0xF629129F EQ PUSH2 0x83 JUMPI JUMPDEST PUSH1 0x0 DUP1 REVERT JUMPDEST PUSH2 0x59 PUSH2 0xA1 JUMP JUMPDEST STOP JUMPDEST PUSH2 0x63 PUSH2 0xCD JUMP JUMPDEST STOP JUMPDEST PUSH2 0x6D PUSH2 0xF9 JUMP JUMPDEST PUSH1 0x40 MLOAD PUSH2 0x7A SWAP2 SWAP1 PUSH2 0x2CE JUMP JUMPDEST PUSH1 0x40 MLOAD DUP1 SWAP2 SUB SWAP1 RETURN JUMPDEST PUSH2 0x8B PUSH2 0x25A JUMP JUMPDEST PUSH1 0x40 MLOAD PUSH2 0x98 SWAP2 SWAP1 PUSH2 0x2B3 JUMP JUMPDEST PUSH1 0x40 MLOAD DUP1 SWAP2 SUB SWAP1 RETURN JUMPDEST PUSH1 0x0 DUP1 PUSH1 0x0 PUSH2 0x100 EXP DUP2 SLOAD DUP2 PUSH1 0xFF MUL NOT AND SWAP1 DUP4 PUSH1 0x2 DUP2 GT ISZERO PUSH2 0xC6 JUMPI PUSH2 0xC5 PUSH2 0x364 JUMP JUMPDEST JUMPDEST MUL OR SWAP1 SSTORE POP JUMP JUMPDEST PUSH1 0x1 PUSH1 0x0 DUP1 PUSH2 0x100 EXP DUP2 SLOAD DUP2 PUSH1 0xFF MUL NOT AND SWAP1 DUP4 PUSH1 0x2 DUP2 GT ISZERO PUSH2 0xF2 JUMPI PUSH2 0xF1 PUSH2 0x364 JUMP JUMPDEST JUMPDEST MUL OR SWAP1 SSTORE POP JUMP JUMPDEST PUSH1 0x60 PUSH1 0x0 PUSH1 0x2 DUP2 GT ISZERO PUSH2 0x10F JUMPI PUSH2 0x10E PUSH2 0x364 JUMP JUMPDEST JUMPDEST PUSH1 0x0 DUP1 SLOAD SWAP1 PUSH2 0x100 EXP SWAP1 DIV PUSH1 0xFF AND PUSH1 0x2 DUP2 GT ISZERO PUSH2 0x12F JUMPI PUSH2 0x12E PUSH2 0x364 JUMP JUMPDEST JUMPDEST EQ ISZERO PUSH2 0x172 JUMPI PUSH1 0x40 MLOAD DUP1 PUSH1 0x40 ADD PUSH1 0x40 MSTORE DUP1 PUSH1 0x6 DUP2 MSTORE PUSH1 0x20 ADD PUSH32 0x4163746976650000000000000000000000000000000000000000000000000000 DUP2 MSTORE POP SWAP1 POP PUSH2 0x257 JUMP JUMPDEST PUSH1 0x1 PUSH1 0x2 DUP2 GT ISZERO PUSH2 0x186 JUMPI PUSH2 0x185 PUSH2 0x364 JUMP JUMPDEST JUMPDEST PUSH1 0x0 DUP1 SLOAD SWAP1 PUSH2 0x100 EXP SWAP1 DIV PUSH1 0xFF AND PUSH1 0x2 DUP2 GT ISZERO PUSH2 0x1A6 JUMPI PUSH2 0x1A5 PUSH2 0x364 JUMP JUMPDEST JUMPDEST EQ ISZERO PUSH2 0x1E9 JUMPI PUSH1 0x40 MLOAD DUP1 PUSH1 0x40 ADD PUSH1 0x40 MSTORE DUP1 PUSH1 0x8 DUP2 MSTORE PUSH1 0x20 ADD PUSH32 0x496E616374697665000000000000000000000000000000000000000000000000 DUP2 MSTORE POP SWAP1 POP PUSH2 0x257 JUMP JUMPDEST PUSH1 0x2 DUP1 DUP2 GT ISZERO PUSH2 0x1FC JUMPI PUSH2 0x1FB PUSH2 0x364 JUMP JUMPDEST JUMPDEST PUSH1 0x0 DUP1 SLOAD SWAP1 PUSH2 0x100 EXP SWAP1 DIV PUSH1 0xFF AND PUSH1 0x2 DUP2 GT ISZERO PUSH2 0x21C JUMPI PUSH2 0x21B PUSH2 0x364 JUMP JUMPDEST JUMPDEST POP POP PUSH1 0x40 MLOAD DUP1 PUSH1 0x40 ADD PUSH1 0x40 MSTORE DUP1 PUSH1 0xA DUP2 MSTORE PUSH1 0x20 ADD PUSH32 0x57616974696E672E2E2E00000000000000000000000000000000000000000000 DUP2 MSTORE POP SWAP1 POP JUMPDEST SWAP1 JUMP JUMPDEST PUSH1 0x0 DUP1 SLOAD SWAP1 PUSH2 0x100 EXP SWAP1 DIV PUSH1 0xFF AND DUP2 JUMP JUMPDEST PUSH2 0x274 DUP2 PUSH2 0x31F JUMP JUMPDEST DUP3 MSTORE POP POP JUMP JUMPDEST PUSH1 0x0 PUSH2 0x285 DUP3 PUSH2 0x2F0 JUMP JUMPDEST PUSH2 0x28F DUP2 DUP6 PUSH2 0x2FB JUMP JUMPDEST SWAP4 POP PUSH2 0x29F DUP2 DUP6 PUSH1 0x20 DUP7 ADD PUSH2 0x331 JUMP JUMPDEST PUSH2 0x2A8 DUP2 PUSH2 0x393 JUMP JUMPDEST DUP5 ADD SWAP2 POP POP SWAP3 SWAP2 POP POP JUMP JUMPDEST PUSH1 0x0 PUSH1 0x20 DUP3 ADD SWAP1 POP PUSH2 0x2C8 PUSH1 0x0 DUP4 ADD DUP5 PUSH2 0x26B JUMP JUMPDEST SWAP3 SWAP2 POP POP JUMP JUMPDEST PUSH1 0x0 PUSH1 0x20 DUP3 ADD SWAP1 POP DUP2 DUP2 SUB PUSH1 0x0 DUP4 ADD MSTORE PUSH2 0x2E8 DUP2 DUP5 PUSH2 0x27A JUMP JUMPDEST SWAP1 POP SWAP3 SWAP2 POP POP JUMP JUMPDEST PUSH1 0x0 DUP2 MLOAD SWAP1 POP SWAP2 SWAP1 POP JUMP JUMPDEST PUSH1 0x0 DUP3 DUP3 MSTORE PUSH1 0x20 DUP3 ADD SWAP1 POP SWAP3 SWAP2 POP POP JUMP JUMPDEST PUSH1 0x0 DUP2 SWAP1 POP PUSH2 0x31A DUP3 PUSH2 0x3A4 JUMP JUMPDEST SWAP2 SWAP1 POP JUMP JUMPDEST PUSH1 0x0 PUSH2 0x32A DUP3 PUSH2 0x30C JUMP JUMPDEST SWAP1 POP SWAP2 SWAP1 POP JUMP JUMPDEST PUSH1 0x0 JUMPDEST DUP4 DUP2 LT ISZERO PUSH2 0x34F JUMPI DUP1 DUP3 ADD MLOAD DUP2 DUP5 ADD MSTORE PUSH1 0x20 DUP2 ADD SWAP1 POP PUSH2 0x334 JUMP JUMPDEST DUP4 DUP2 GT ISZERO PUSH2 0x35E JUMPI PUSH1 0x0 DUP5 DUP5 ADD MSTORE JUMPDEST POP POP POP POP JUMP JUMPDEST PUSH32 0x4E487B7100000000000000000000000000000000000000000000000000000000 PUSH1 0x0 MSTORE PUSH1 0x21 PUSH1 0x4 MSTORE PUSH1 0x24 PUSH1 0x0 REVERT JUMPDEST PUSH1 0x0 PUSH1 0x1F NOT PUSH1 0x1F DUP4 ADD AND SWAP1 POP SWAP2 SWAP1 POP JUMP JUMPDEST PUSH1 0x3 DUP2 LT PUSH2 0x3B5 JUMPI PUSH2 0x3B4 PUSH2 0x364 JUMP JUMPDEST JUMPDEST POP JUMP INVALID LOG2 PUSH5 0x6970667358 0x22 SLT KECCAK256 0xAD NOT 0xD5 0xB9 PUSH25 0xC0499AC40EDF63009DBE5CB519D8FBFD95217D8BE48262D6B8 0xF6 0xDA PUSH5 0x736F6C6343 STOP ADDMOD SMOD STOP CALLER "
		},
		"gasEstimates": {
			"creation": {
				"codeDepositCost": "201200",
				"executionCost": "24544",
				"totalCost": "225744"
			},
			"external": {
				"activate()": "24409",
				"checkstate()": "infinite",
				"currentstate()": "2601",
				"deactivate()": "24431"
			}
		},
		"methodIdentifiers": {
			"activate()": "0f15f4c0",
			"checkstate()": "e6150473",
			"currentstate()": "f629129f",
			"deactivate()": "51b42b00"
		}
	},
	"abi": [
		{
			"inputs": [],
			"name": "activate",
			"outputs": [],
			"stateMutability": "nonpayable",
			"type": "function"
		},
		{
			"inputs": [],
			"name": "checkstate",
			"outputs": [
				{
					"internalType": "string",
					"name": "",
					"type": "string"
				}
			],
			"stateMutability": "view",
			"type": "function"
		},
		{
			"inputs": [],
			"name": "currentstate",
			"outputs": [
				{
					"internalType": "enum state.states",
					"name": "",
					"type": "uint8"
				}
			],
			"stateMutability": "view",
			"type": "function"
		},
		{
			"inputs": [],
			"name": "deactivate",
			"outputs": [],
			"stateMutability": "nonpayable",
			"type": "function"
		}
	]
}